{
  "address": "0x39b82cbf092d466c6CBCDc5Db032e017CcefbE6d",
  "abi": [
    {
      "inputs": [
        {
          "internalType": "address",
          "name": "_cornDEX",
          "type": "address"
        },
        {
          "internalType": "address",
          "name": "_corn",
          "type": "address"
        }
      ],
      "stateMutability": "nonpayable",
      "type": "constructor"
    },
    {
      "inputs": [],
      "name": "Lending__BorrowingFailed",
      "type": "error"
    },
    {
      "inputs": [],
      "name": "Lending__InsufficientFundsOrAllowance",
      "type": "error"
    },
    {
      "inputs": [],
      "name": "Lending__InsufficientLiquidatorCorn",
      "type": "error"
    },
    {
      "inputs": [],
      "name": "Lending__InvalidAmount",
      "type": "error"
    },
    {
      "inputs": [],
      "name": "Lending__NotLiquidatable",
      "type": "error"
    },
    {
      "inputs": [],
      "name": "Lending__RepayingFailed",
      "type": "error"
    },
    {
      "inputs": [],
      "name": "Lending__TransferFailed",
      "type": "error"
    },
    {
      "inputs": [],
      "name": "Lending__UnsafePositionRatio",
      "type": "error"
    },
    {
      "inputs": [
        {
          "internalType": "address",
          "name": "owner",
          "type": "address"
        }
      ],
      "name": "OwnableInvalidOwner",
      "type": "error"
    },
    {
      "inputs": [
        {
          "internalType": "address",
          "name": "account",
          "type": "address"
        }
      ],
      "name": "OwnableUnauthorizedAccount",
      "type": "error"
    },
    {
      "anonymous": false,
      "inputs": [
        {
          "indexed": true,
          "internalType": "address",
          "name": "user",
          "type": "address"
        },
        {
          "indexed": true,
          "internalType": "uint256",
          "name": "amount",
          "type": "uint256"
        },
        {
          "indexed": false,
          "internalType": "uint256",
          "name": "price",
          "type": "uint256"
        }
      ],
      "name": "AssetBorrowed",
      "type": "event"
    },
    {
      "anonymous": false,
      "inputs": [
        {
          "indexed": true,
          "internalType": "address",
          "name": "user",
          "type": "address"
        },
        {
          "indexed": true,
          "internalType": "uint256",
          "name": "amount",
          "type": "uint256"
        },
        {
          "indexed": false,
          "internalType": "uint256",
          "name": "price",
          "type": "uint256"
        }
      ],
      "name": "AssetRepaid",
      "type": "event"
    },
    {
      "anonymous": false,
      "inputs": [
        {
          "indexed": true,
          "internalType": "address",
          "name": "user",
          "type": "address"
        },
        {
          "indexed": true,
          "internalType": "uint256",
          "name": "amount",
          "type": "uint256"
        },
        {
          "indexed": false,
          "internalType": "uint256",
          "name": "price",
          "type": "uint256"
        }
      ],
      "name": "CollateralAdded",
      "type": "event"
    },
    {
      "anonymous": false,
      "inputs": [
        {
          "indexed": true,
          "internalType": "address",
          "name": "user",
          "type": "address"
        },
        {
          "indexed": true,
          "internalType": "uint256",
          "name": "amount",
          "type": "uint256"
        },
        {
          "indexed": false,
          "internalType": "uint256",
          "name": "price",
          "type": "uint256"
        }
      ],
      "name": "CollateralWithdrawn",
      "type": "event"
    },
    {
      "anonymous": false,
      "inputs": [
        {
          "indexed": true,
          "internalType": "address",
          "name": "user",
          "type": "address"
        },
        {
          "indexed": true,
          "internalType": "address",
          "name": "liquidator",
          "type": "address"
        },
        {
          "indexed": false,
          "internalType": "uint256",
          "name": "amountForLiquidator",
          "type": "uint256"
        },
        {
          "indexed": false,
          "internalType": "uint256",
          "name": "liquidatedUserDebt",
          "type": "uint256"
        },
        {
          "indexed": false,
          "internalType": "uint256",
          "name": "price",
          "type": "uint256"
        }
      ],
      "name": "Liquidation",
      "type": "event"
    },
    {
      "anonymous": false,
      "inputs": [
        {
          "indexed": true,
          "internalType": "address",
          "name": "previousOwner",
          "type": "address"
        },
        {
          "indexed": true,
          "internalType": "address",
          "name": "newOwner",
          "type": "address"
        }
      ],
      "name": "OwnershipTransferred",
      "type": "event"
    },
    {
      "inputs": [],
      "name": "addCollateral",
      "outputs": [],
      "stateMutability": "payable",
      "type": "function"
    },
    {
      "inputs": [
        {
          "internalType": "uint256",
          "name": "borrowAmount",
          "type": "uint256"
        }
      ],
      "name": "borrowCorn",
      "outputs": [],
      "stateMutability": "nonpayable",
      "type": "function"
    },
    {
      "inputs": [
        {
          "internalType": "address",
          "name": "user",
          "type": "address"
        }
      ],
      "name": "calculateCollateralValue",
      "outputs": [
        {
          "internalType": "uint256",
          "name": "",
          "type": "uint256"
        }
      ],
      "stateMutability": "view",
      "type": "function"
    },
    {
      "inputs": [
        {
          "internalType": "address",
          "name": "user",
          "type": "address"
        }
      ],
      "name": "isLiquidatable",
      "outputs": [
        {
          "internalType": "bool",
          "name": "",
          "type": "bool"
        }
      ],
      "stateMutability": "view",
      "type": "function"
    },
    {
      "inputs": [
        {
          "internalType": "address",
          "name": "user",
          "type": "address"
        }
      ],
      "name": "liquidate",
      "outputs": [],
      "stateMutability": "nonpayable",
      "type": "function"
    },
    {
      "inputs": [],
      "name": "owner",
      "outputs": [
        {
          "internalType": "address",
          "name": "",
          "type": "address"
        }
      ],
      "stateMutability": "view",
      "type": "function"
    },
    {
      "inputs": [],
      "name": "renounceOwnership",
      "outputs": [],
      "stateMutability": "nonpayable",
      "type": "function"
    },
    {
      "inputs": [
        {
          "internalType": "uint256",
          "name": "repayAmount",
          "type": "uint256"
        }
      ],
      "name": "repayCorn",
      "outputs": [],
      "stateMutability": "nonpayable",
      "type": "function"
    },
    {
      "inputs": [
        {
          "internalType": "address",
          "name": "",
          "type": "address"
        }
      ],
      "name": "s_userBorrowed",
      "outputs": [
        {
          "internalType": "uint256",
          "name": "",
          "type": "uint256"
        }
      ],
      "stateMutability": "view",
      "type": "function"
    },
    {
      "inputs": [
        {
          "internalType": "address",
          "name": "",
          "type": "address"
        }
      ],
      "name": "s_userCollateral",
      "outputs": [
        {
          "internalType": "uint256",
          "name": "",
          "type": "uint256"
        }
      ],
      "stateMutability": "view",
      "type": "function"
    },
    {
      "inputs": [
        {
          "internalType": "address",
          "name": "newOwner",
          "type": "address"
        }
      ],
      "name": "transferOwnership",
      "outputs": [],
      "stateMutability": "nonpayable",
      "type": "function"
    },
    {
      "inputs": [
        {
          "internalType": "uint256",
          "name": "amount",
          "type": "uint256"
        }
      ],
      "name": "withdrawCollateral",
      "outputs": [],
      "stateMutability": "nonpayable",
      "type": "function"
    }
  ],
  "transactionHash": "0x4b6f8e79b91b84cd17688d95ae2dec1c94461e293162ae02f4c6ab236453e48c",
  "args": [
    "0x4DD1E82A3126FF8D883B841D04082836e610c6b8",
    "0x3D17B4fAaB22384A3dFac59A81fCf135E19c09C5"
  ],
  "numDeployments": 1,
  "solcInputHash": "d5c8bdd8685fc4aa109ec10ca96e208a",
  "bytecode": "0x60806040523480156200001157600080fd5b506040516200139638038062001396833981016040819052620000349162000175565b33806200005b57604051631e4fbdf760e01b81526000600482015260240160405180910390fd5b620000668162000108565b50600280546001600160a01b038481166001600160a01b03199283161790925560018054928416929091168217905560405163095ea7b360e01b8152306004820152600019602482015263095ea7b3906044016020604051808303816000875af1158015620000d9573d6000803e3d6000fd5b505050506040513d601f19601f82011682018060405250810190620000ff9190620001ad565b505050620001d8565b600080546001600160a01b038381166001600160a01b0319831681178455604051919092169283917f8be0079c531659141344cd1fd0a4f28419497f9722a3daafe3b4186f6b6457e09190a35050565b80516001600160a01b03811681146200017057600080fd5b919050565b600080604083850312156200018957600080fd5b620001948362000158565b9150620001a46020840162000158565b90509250929050565b600060208284031215620001c057600080fd5b81518015158114620001d157600080fd5b9392505050565b6111ae80620001e86000396000f3fe6080604052600436106100a75760003560e01c80638da5cb5b116100645780638da5cb5b146101935780639e816999146101bb578063bd00c24d146101c3578063d5de45a6146101f0578063d678598a14610210578063f2fde38b1461023057600080fd5b8063042e02cf146100ac5780630835e145146100e15780632a5f2c231461010f5780632f8655681461013c5780636112fe2e1461015e578063715018a61461017e575b600080fd5b3480156100b857600080fd5b506100cc6100c736600461107f565b610250565b60405190151581526020015b60405180910390f35b3480156100ed57600080fd5b506101016100fc36600461107f565b610284565b6040519081526020016100d8565b34801561011b57600080fd5b5061010161012a36600461107f565b60046020526000908152604090205481565b34801561014857600080fd5b5061015c61015736600461107f565b610339565b005b34801561016a57600080fd5b5061015c6101793660046110af565b6108ad565b34801561018a57600080fd5b5061015c610a49565b34801561019f57600080fd5b506000546040516001600160a01b0390911681526020016100d8565b61015c610a5d565b3480156101cf57600080fd5b506101016101de36600461107f565b60036020526000908152604090205481565b3480156101fc57600080fd5b5061015c61020b3660046110af565b610b5a565b34801561021c57600080fd5b5061015c61022b3660046110af565b610cbe565b34801561023c57600080fd5b5061015c61024b36600461107f565b610f3b565b60008061025c83610f7e565b90506102716078670de0b6b3a76400006110de565b61027c8260646110de565b109392505050565b6000670de0b6b3a7640000600260009054906101000a90046001600160a01b03166001600160a01b0316639d1b464a6040518163ffffffff1660e01b8152600401602060405180830381865afa1580156102e2573d6000803e3d6000fd5b505050506040513d601f19601f8201168201806040525081019061030691906110f5565b6001600160a01b03841660009081526003602052604090205461032991906110de565b610333919061110e565b92915050565b61034281610250565b61035f5760405163175ae04960e11b815260040160405180910390fd5b6001600160a01b038181166000908152600460208190526040918290205460015492516370a0823160e01b8152339281019290925292839216906370a0823190602401602060405180830381865afa1580156103bf573d6000803e3d6000fd5b505050506040513d601f19601f820116820180604052508101906103e391906110f5565b108061045e5750600154604051636eb1769f60e11b815233600482015230602482015282916001600160a01b03169063dd62ed3e90604401602060405180830381865afa158015610438573d6000803e3d6000fd5b505050506040513d601f19601f8201168201806040525081019061045c91906110f5565b105b1561047c576040516327f93fb360e11b815260040160405180910390fd5b6001600160a01b038216600090815260046020526040812081905560646104a4600a846110de565b6104ae919061110e565b905060006104bc8284611130565b9050670de0b6b3a7640000600260009054906101000a90046001600160a01b03166001600160a01b0316639d1b464a6040518163ffffffff1660e01b8152600401602060405180830381865afa15801561051a573d6000803e3d6000fd5b505050506040513d601f19601f8201168201806040525081019061053e91906110f5565b6001600160a01b03861660009081526003602052604090205461056191906110de565b61056b919061110e565b8111156106175760025460408051634e8da32560e11b81529051670de0b6b3a7640000926001600160a01b031691639d1b464a9160048083019260209291908290030181865afa1580156105c3573d6000803e3d6000fd5b505050506040513d601f19601f820116820180604052508101906105e791906110f5565b6001600160a01b03861660009081526003602052604090205461060a91906110de565b610614919061110e565b90505b60025460408051634e8da32560e11b815290516000926001600160a01b031691639d1b464a9160048083019260209291908290030181865afa158015610661573d6000803e3d6000fd5b505050506040513d601f19601f8201168201806040525081019061068591906110f5565b61069783670de0b6b3a76400006110de565b6106a1919061110e565b6001600160a01b0386166000908152600360205260408120805492935083929091906106ce908490611143565b90915550506001546040516323b872dd60e01b8152336004820152306024820152604481018690526000916001600160a01b0316906323b872dd906064016020604051808303816000875af115801561072b573d6000803e3d6000fd5b505050506040513d601f19601f8201168201806040525081019061074f9190611156565b90508061076f5760405163c1cf149f60e01b815260040160405180910390fd5b604051600090339084908381818185875af1925050503d80600081146107b1576040519150601f19603f3d011682016040523d82523d6000602084013e6107b6565b606091505b50509050806107d85760405163a419137f60e01b815260040160405180910390fd5b336001600160a01b0316876001600160a01b03167f5a821a618ddb1a1fd304234a69c9d7f20c129d122fcf35593d13a071926643078589600260009054906101000a90046001600160a01b03166001600160a01b0316639d1b464a6040518163ffffffff1660e01b8152600401602060405180830381865afa158015610862573d6000803e3d6000fd5b505050506040513d601f19601f8201168201806040525081019061088691906110f5565b6040805193845260208401929092529082015260600160405180910390a350505050505050565b8015806108c857503360009081526003602052604090205481115b156108e65760405163269cf19b60e11b815260040160405180910390fd5b3360009081526003602052604081208054839290610905908490611143565b909155505033600090815260046020526040902054156109285761092833610fdb565b604051600090339083908381818185875af1925050503d806000811461096a576040519150601f19603f3d011682016040523d82523d6000602084013e61096f565b606091505b50509050806109915760405163a419137f60e01b815260040160405180910390fd5b81336001600160a01b03167fdaed309a628faec6cab72194019e2a1a34e890ca9bf9be99788992dd54692819600260009054906101000a90046001600160a01b03166001600160a01b0316639d1b464a6040518163ffffffff1660e01b8152600401602060405180830381865afa158015610a10573d6000803e3d6000fd5b505050506040513d601f19601f82011682018060405250810190610a3491906110f5565b60405190815260200160405180910390a35050565b610a51611002565b610a5b600061102f565b565b34600003610a7e5760405163269cf19b60e11b815260040160405180910390fd5b3360009081526003602052604081208054349290610a9d908490611130565b9250508190555034336001600160a01b03167f11f8990ac38271f23dea447d5728e9914fca7cea2edda43af6c43c415f8bc30b600260009054906101000a90046001600160a01b03166001600160a01b0316639d1b464a6040518163ffffffff1660e01b8152600401602060405180830381865afa158015610b23573d6000803e3d6000fd5b505050506040513d601f19601f82011682018060405250810190610b4791906110f5565b60405190815260200160405180910390a3565b80600003610b7b5760405163269cf19b60e11b815260040160405180910390fd5b3360009081526004602052604081208054839290610b9a908490611130565b90915550610ba9905033610fdb565b60015460405163a9059cbb60e01b8152336004820152602481018390526000916001600160a01b03169063a9059cbb906044016020604051808303816000875af1158015610bfb573d6000803e3d6000fd5b505050506040513d601f19601f82011682018060405250810190610c1f9190611156565b905080610c3f576040516325b1478b60e21b815260040160405180910390fd5b81336001600160a01b03167f6c8250ea4d625c09ee567802242f70b37c9dcfdb10a904563781c1ed7663c7cc600260009054906101000a90046001600160a01b03166001600160a01b0316639d1b464a6040518163ffffffff1660e01b8152600401602060405180830381865afa158015610a10573d6000803e3d6000fd5b801580610cd957503360009081526004602052604090205481115b15610cf75760405163269cf19b60e11b815260040160405180910390fd5b6001546040516370a0823160e01b815233600482015282916001600160a01b0316906370a0823190602401602060405180830381865afa158015610d3f573d6000803e3d6000fd5b505050506040513d601f19601f82011682018060405250810190610d6391906110f5565b1080610dde5750600154604051636eb1769f60e11b815233600482015230602482015282916001600160a01b03169063dd62ed3e90604401602060405180830381865afa158015610db8573d6000803e3d6000fd5b505050506040513d601f19601f82011682018060405250810190610ddc91906110f5565b105b15610dfc5760405163ab64199360e01b815260040160405180910390fd5b3360009081526004602052604081208054839290610e1b908490611143565b90915550506001546040516323b872dd60e01b8152336004820152306024820152604481018390526000916001600160a01b0316906323b872dd906064016020604051808303816000875af1158015610e78573d6000803e3d6000fd5b505050506040513d601f19601f82011682018060405250810190610e9c9190611156565b905080610ebc5760405163c1cf149f60e01b815260040160405180910390fd5b81336001600160a01b03167fc1afad9537411d7ba4a74e9ee309d18f26f72ee1bfc63647b61e9bca0eec322c600260009054906101000a90046001600160a01b03166001600160a01b0316639d1b464a6040518163ffffffff1660e01b8152600401602060405180830381865afa158015610a10573d6000803e3d6000fd5b610f43611002565b6001600160a01b038116610f7257604051631e4fbdf760e01b8152600060048201526024015b60405180910390fd5b610f7b8161102f565b50565b6001600160a01b03811660009081526004602052604081205481610fa184610284565b905081600003610fb657506000199392505050565b81610fc982670de0b6b3a76400006110de565b610fd3919061110e565b949350505050565b610fe481610250565b15610f7b57604051632606396760e21b815260040160405180910390fd5b6000546001600160a01b03163314610a5b5760405163118cdaa760e01b8152336004820152602401610f69565b600080546001600160a01b038381166001600160a01b0319831681178455604051919092169283917f8be0079c531659141344cd1fd0a4f28419497f9722a3daafe3b4186f6b6457e09190a35050565b60006020828403121561109157600080fd5b81356001600160a01b03811681146110a857600080fd5b9392505050565b6000602082840312156110c157600080fd5b5035919050565b634e487b7160e01b600052601160045260246000fd5b8082028115828204841417610333576103336110c8565b60006020828403121561110757600080fd5b5051919050565b60008261112b57634e487b7160e01b600052601260045260246000fd5b500490565b80820180821115610333576103336110c8565b81810381811115610333576103336110c8565b60006020828403121561116857600080fd5b815180151581146110a857600080fdfea26469706673582212200e5df566b3f266025ccbe17a7b75cbe145e3c8c8096747c1397a62ad4d1fb12664736f6c63430008140033",
  "devdoc": {
    "errors": {
      "OwnableInvalidOwner(address)": [
        {
          "details": "The owner is not a valid owner account. (eg. `address(0)`)"
        }
      ],
      "OwnableUnauthorizedAccount(address)": [
        {
          "details": "The caller account is not authorized to perform an operation."
        }
      ]
    },
    "kind": "dev",
    "methods": {
      "borrowCorn(uint256)": {
        "params": {
          "borrowAmount": "The amount of corn to borrow"
        }
      },
      "calculateCollateralValue(address)": {
        "params": {
          "user": "The address of the user to calculate the collateral value for"
        },
        "returns": {
          "_0": "uint256 The collateral value"
        }
      },
      "isLiquidatable(address)": {
        "params": {
          "user": "The address of the user to check"
        },
        "returns": {
          "_0": "bool True if the position is liquidatable, false otherwise"
        }
      },
      "liquidate(address)": {
        "details": "The caller must have enough CORN to pay back user's debtThe caller must have approved this contract to transfer the debt",
        "params": {
          "user": "The address of the user to liquidate"
        }
      },
      "owner()": {
        "details": "Returns the address of the current owner."
      },
      "renounceOwnership()": {
        "details": "Leaves the contract without owner. It will not be possible to call `onlyOwner` functions. Can only be called by the current owner. NOTE: Renouncing ownership will leave the contract without an owner, thereby disabling any functionality that is only available to the owner."
      },
      "repayCorn(uint256)": {
        "params": {
          "repayAmount": "The amount of corn to repay"
        }
      },
      "transferOwnership(address)": {
        "details": "Transfers ownership of the contract to a new account (`newOwner`). Can only be called by the current owner."
      },
      "withdrawCollateral(uint256)": {
        "params": {
          "amount": "The amount of collateral to withdraw"
        }
      }
    },
    "version": 1
  },
  "userdoc": {
    "kind": "user",
    "methods": {
      "addCollateral()": {
        "notice": "Allows users to add collateral to their account"
      },
      "borrowCorn(uint256)": {
        "notice": "Allows users to borrow corn based on their collateral"
      },
      "calculateCollateralValue(address)": {
        "notice": "Calculates the total collateral value for a user based on their collateral balance"
      },
      "isLiquidatable(address)": {
        "notice": "Checks if a user's position can be liquidated"
      },
      "liquidate(address)": {
        "notice": "Allows liquidators to liquidate unsafe positions"
      },
      "repayCorn(uint256)": {
        "notice": "Allows users to repay corn and reduce their debt"
      },
      "withdrawCollateral(uint256)": {
        "notice": "Allows users to withdraw collateral as long as it doesn't make them liquidatable"
      }
    },
    "version": 1
  },
  "storageLayout": {
    "storage": [
      {
        "astId": 8,
        "contract": "contracts/Lending.sol:Lending",
        "label": "_owner",
        "offset": 0,
        "slot": "0",
        "type": "t_address"
      },
      {
        "astId": 1686,
        "contract": "contracts/Lending.sol:Lending",
        "label": "i_corn",
        "offset": 0,
        "slot": "1",
        "type": "t_contract(Corn)1000"
      },
      {
        "astId": 1689,
        "contract": "contracts/Lending.sol:Lending",
        "label": "i_cornDEX",
        "offset": 0,
        "slot": "2",
        "type": "t_contract(CornDEX)1652"
      },
      {
        "astId": 1693,
        "contract": "contracts/Lending.sol:Lending",
        "label": "s_userCollateral",
        "offset": 0,
        "slot": "3",
        "type": "t_mapping(t_address,t_uint256)"
      },
      {
        "astId": 1697,
        "contract": "contracts/Lending.sol:Lending",
        "label": "s_userBorrowed",
        "offset": 0,
        "slot": "4",
        "type": "t_mapping(t_address,t_uint256)"
      }
    ],
    "types": {
      "t_address": {
        "encoding": "inplace",
        "label": "address",
        "numberOfBytes": "20"
      },
      "t_contract(Corn)1000": {
        "encoding": "inplace",
        "label": "contract Corn",
        "numberOfBytes": "20"
      },
      "t_contract(CornDEX)1652": {
        "encoding": "inplace",
        "label": "contract CornDEX",
        "numberOfBytes": "20"
      },
      "t_mapping(t_address,t_uint256)": {
        "encoding": "mapping",
        "key": "t_address",
        "label": "mapping(address => uint256)",
        "numberOfBytes": "32",
        "value": "t_uint256"
      },
      "t_uint256": {
        "encoding": "inplace",
        "label": "uint256",
        "numberOfBytes": "32"
      }
    }
  }
}